:100000000C943000279A81E090E0E3E0F0E030E0EB
:1000100020E02F9A4FE759EA63E04150504060409A
:10002000E1F700C000002F984FE759EA63E0415024
:1000300050406040E1F700C000002F5F3F4F821743
:10004000930739F72FEF3EE944E22150304040401A
:10005000E1F700C00000BF010E9478000196D7CFF1
:100060000C946E000C9400000C9400000C940000A2
:100070000C9400000C9400000C9400000C94000000
:100080000C9400000C9400000C9400000C940000F0
:100090000C9400000C9400000C9400000C940000E0
:1000A0000C9400000C9400000C9400000C940000D0
:1000B0000C9400000C9400000C9400000C940000C0
:1000C0000C9400000C9400000C9400000C940000B0
:1000D0000C9400000C9400000C94000011241FBE2E
:1000E000CFEFD0E1DEBFCDBF0E9402000C94A00094
:1000F00097FB072E16F4009407D077FD09D00E94D5
:100100008C0007FC05D03EF4909581959F4F089593
:10011000709561957F4F0895AA1BBB1B51E107C0E5
:10012000AA1FBB1FA617B70710F0A61BB70B881F87
:10013000991F5A95A9F780959095BC01CD01089516
:10014000F894FFCF2596F365389402F1933EB8EC0E
:10015000DD84747D449B851201E6A9FB8B996407BD
:10016000C041E975C2C8C19AA8B19CB2EA4E05EC7B
:10017000E16F1F470687BDC90849A12CA6A4709945
:100180005049868162C44251E01803BB4BA2EE1372
:100190007396B2BFC833D3A2DB91E16F412E789A38
:1001A000AE080645D5F09D63E95192FEF03F16FE7C
:1001B000ADFE174EEC92FB8F8229DF806DA259981D
:1001C000957B9266268FE0D2B4570257BA81804859
:1001D000CFA0DA02122A7868ABAFD0122C356C7C33
:1001E000A4E2A0103A350B491E63B0E99836AF532C
:1001F000238BDD711475ECD185F5FDBED1B99BB8AB
:0C020000636AD647DDFEBF5D5293B30772
:00000001FF
