:100000000C943000279A81E090E0E3E0F0E030E0EB
:1000100020E02F9A4FE759EA63E04150504060409A
:10002000E1F700C000002F984FE759EA63E0415024
:1000300050406040E1F700C000002F5F3F4F821743
:10004000930739F72FEF3EE944E22150304040401A
:10005000E1F700C00000BF010E9478000196D7CFF1
:100060000C946E000C9400000C9400000C940000A2
:100070000C9400000C9400000C9400000C94000000
:100080000C9400000C9400000C9400000C940000F0
:100090000C9400000C9400000C9400000C940000E0
:1000A0000C9400000C9400000C9400000C940000D0
:1000B0000C9400000C9400000C9400000C940000C0
:1000C0000C9400000C9400000C9400000C940000B0
:0C00D0000C9400000C9400000C94000044
:0C00DC0011241FBECFEFD0E1DEBFCDBF6E
:0800E8000E9402000C94A0002C
:1000F00097FB072E16F4009407D077FD09D00E94D5
:100100008C0007FC05D03EF4909581959F4F089593
:10011000709561957F4F0895AA1BBB1B51E107C0E5
:10012000AA1FBB1FA617B70710F0A61BB70B881F87
:10013000991F5A95A9F780959095BC01CD01089516
:04014000F894FFCF61
:100144000398921C734B9857BE078A1309C5BDC800
:10015400D9D5C072D70FD9D3292C576171DB120AB4
:100164002B8AB6461BEDA40FA732998C009A01D5B1
:10017400A3F1D82F6FF3F0C997718559955923715D
:100184007CADEB89BB0EB63CF65166F646F8DE93C1
:10019400ED98CB8F3BDDD369EEE0784007FE2E1C53
:1001A4006FB355C73BA5EC49557F4A2C68E5055EFE
:1001B4004C81CDDFD0B684552D5EA00CF8F2F4B797
:1001C400AF9A25316D35ABD598C521882815796648
:1001D400547D2751DC7ED2598DCC99204B4AF26D47
:1001E400D607FF247D17F893BBF7A26889FD909783
:1001F400C1E2C0C5895709D80C44DF1499EE2358CD
:0802040019775D32B73A5C2660
:00000001FF
