:100000000C941800279A2F9A2FE789EA93E0215041
:1000100080409040E1F700C000002F982FE785EF67
:1000200090E2215080409040E1F700C00000EBCF0B
:100030000C9456000C9400000C9400000C940000EA
:100040000C9400000C9400000C9400000C94000030
:100050000C9400000C9400000C9400000C94000020
:100060000C9400000C9400000C9400000C94000010
:100070000C9400000C9400000C9400000C94000000
:100080000C9400000C9400000C9400000C940000F0
:100090000C9400000C9400000C9400000C940000E0
:0C00A0000C9400000C9400000C94000074
:0C00AC0011241FBECFEFD0E1DEBFCDBF9E
:0800B8000E9402000C9460009C
:0400C000F894FFCFE2
:00000001FF
