:020000021000EC
:10F0000030C0000052C0000050C0000068C00000C6
:10F01000040309041C037700770077002E006600C4
:10F0200069007300630068006C002E0064006500D6
:10F030000E0355005300420061007300700012017E
:10F040001001FF000008C016DC05020101020001EA
:10F0500009021200010100803209040000000000D2
:10F060000000112411E08FEF81B9E0E1F0EF30965C
:10F0700071E07BBF869182B912B81FBECFEFD0E19D
:10F08000DEBFCDBFA0E0B1E0EEEFFFEF03C07BBF7E
:10F0900007900D92A230B107D9F7A2E0B1E001C00C
:10F0A0001D92A733B107E1F747D1FFCFA82FB92FA2
:10F0B00080E090E041E050EA609530E009C02D9199
:10F0C00082279795879510F084279527305EC8F39F
:10F0D0006F5FA8F30895EADF8D939D930895CF9312
:10F0E000CFB7CF93C3951B9BE9F71B9B09C01B9B15
:10F0F00007C01B9B05C01B9B03C01B9B01C0A1C07D
:10F10000DF93C0911A01DD27CF5DDE4F1B9B02C04C
:10F11000DF91EBCF2F930F931F9303B12FEF03FBDF
:10F1200020F94F933F9313B14FEF012703FB21F9D0
:10F130003BE031C04E7F012F13B1216028C0102F5A
:10F140004D7F2260000003B129C04B7F2460012F56
:10F15000000013B12BC013B1477F28602AC04F7E37
:10F1600003B120612CC04F7D13B120622FC04F7BB3
:10F1700003B1206432C0422703B149934FEF00002E
:10F18000102713FB20F913B11C70C9F1297F91F2EC
:10F19000012703FB21F903B1237F89F2315058F194
:10F1A000102713FB22F913B1277E79F2012703FB05
:10F1B00023F92F7C81F203B1102713FB24F92F7957
:10F1C00071F200C013B1012703FB25F92F7359F227
:10F1D00000C003B1102713FB26F9223040F200C013
:10F1E00013B1012703FB27F9243028F64F77206855
:10F1F00013B10000F9CF14E01CBB002717C03B502F
:10F200003195C31BD04014E01CBB0881033CE9F0DE
:10F210000B34D9F0209118011981110F1213EDCF81
:10F22000093641F10D3211F0013E39F700931F010B
:10F230003F914F911F910F912F91DF91CCB3C2FD60
:10F2400051CFCF91CFBFCF91189520911F0122238D
:10F2500079F310911D01112311F5343012F130931F
:10F260001D012093190110911A013BE0311B3093CD
:10F270001A0117C000911D0101308CF40AE530918C
:10F28000000134FD10C000930001CDE0D1E00FC0BB
:10F290002795A8F45150A9F4220F0000F9CF4AE5B0
:10F2A00003C042ED01C0432FC4E1D0E032E014B10D
:10F2B0001C602B9A14B905B120E41CE05F93012770
:10F2C00056E005B9279520F4515021F4220FF9CFCB
:10F2D000012756E000003B5A05B9D0F2279528F4E3
:10F2E000515029F4220F0000F9CF012756E027954D
:10F2F00005B920F4515021F4220FF9CF012756E02F
:10F300002991332305B921F6037F10911E01110FB6
:10F31000C651D04005B911F01093180114E01CBB80
:10F32000086014B1137F402F437F5F9100C000C07D
:10F3300005B914B945B97CCF84B78A7009F421C2E4
:10F3400014BE88E10FB6F8948093600010926000BC
:10F350000FBE81E085BF82E085BF80916900806338
:10F3600080936900EA9A239A20E004C088EB9BE02E
:10F370000197F1F72150D1F723987894279A2F9A83
:10F38000CC24DD2490911D012F9A2F98935097FD46
:10F3900063C180911A010CE010E0081B11090F5D98
:10F3A0001E4F809119018D3209F0E3C0983009F0A9
:10F3B00051C183EC80930D018AE580930001109286
:10F3C0000601D8013C91832F807611962C918823D9
:10F3D00009F45AC082E091E090931C0180931B01D4
:10F3E000233069F5F894D8011296EC911297E03326
:10F3F00059F41496EC91EE0FE670F0E081E2809300
:10F4000057007BBFE69116C0E03521F0E83511F0DA
:10F41000E0E010C0EF70E695E695E695D80113960A
:10F420008C9186958695E82BF0E089E080935700D3
:10F430007BBFE6917894E093050194E08FC025307E
:10F4400011F491E08BC0822F84508630B0F4F80123
:10F45000828193819093090180930801293091F072
:10F46000968190930A018581827080930B0120938D
:10F470000C0137FD6EC02FEF6DC0223019F481E012
:10F480008093070190E06AC0D80112968C91109287
:10F490001601222331F41092170126E131E092E0A7
:10F4A00053C0253019F480931E014BC02630C9F596
:10F4B000F8018381813019F48EE390EF04C082302B
:10F4C00041F480E590EF90931C0180931B0192E141
:10F4D00024C0833009F5D80112968C91882341F419
:10F4E00080E190EF90931C0180931B0194E015C084
:10F4F000813041F484E190EF90931C0180931B01D3
:10F500009CE10BC0823041F480E390EF90931C01AA
:10F5100080931B019EE001C090E080E4809306018F
:10F520001DC0283019F420E231E009C0293019F457
:10F530008093200106C02A3021F426E131E091E0D9
:10F5400003C026E131E090E030931C0120931B01C1
:10F5500005C0292F80E88093060108C0F801878143
:10F56000882319F42681291708F0292F20930101F7
:10F5700071C08091060187FF6DC080910A01F92E4C
:10F58000891708F4F82E8F1980930A01EE24882336
:10F5900011F4EE24E39480910C01873010F430E0F4
:10F5A00052C0E8010CC080910801909109010196B8
:10F5B000909309018093080101976991EDD09E0114
:10F5C000201B2F1580F342C0E0910801F091090142
:10F5D000EE2351F4F89483E0809357001BBEE89526
:10F5E000789407B600FCFDCF3E5FF894D8018D916A
:10F5F0009D918D0121E00C01209357001BBEE895E1
:10F6000011247894CF010296909309018093080108
:10F61000882341F0EE20B9F03F15A8F080910B014E
:10F62000882389F0F89485E0809357001BBEE89505
:10F63000789407B600FCFDCFF89481E180935700E1
:10F640001BBEE89578943F1508F4BECFEE2011F06C
:10F650001092010110921D018091000184FF73C07E
:10F66000809101018F3F09F46EC0182F893008F096
:10F6700018E0811B8093010180910D0198E8892792
:10F6800080930D01112309F44CC08091060187FF7E
:10F690002BC080910A01811708F4182F811B8093D9
:10F6A0000A01CEE0D1E018C080910C01E091080180
:10F6B000F0910901873020F0CF0166D002C07BBFF6
:10F6C0008691888321968091080190910901019685
:10F6D0009093090180930801812F90E0825F9E4FF3
:10F6E000C817D90709F71BC0E0911B01F0911C0155
:10F6F00086FF0AC0912FAEE0B1E07BBF86918D936B
:10F7000031969150D9F707C0912FAEE0B1E08191C9
:10F710008D939150E1F7F0931C01E0931B01193098
:10F7200060F48EE091E0612FD6DC612F6C5F6C306D
:10F7300041F08FEF8093010104C08FEF80930101AE
:10F740006EE16093000194E183B18C7031F49150CB
:10F75000D9F710921E011092180180910701882399
:10F7600009F410CECA9409F00DCEDA9409F00ACE4D
:10F770002F982798F8941DBA1092690081E085BFF0
:10F7800015BE0C9400000895F999FECF92BD81BD7D
:10F79000F89A992780B50895262FF999FECF1FBAB8
:10F7A00092BD81BD20BD0FB6F894FA9AF99A0FBEAA
:06F7B000019608955AFFC6
:040000031000F000F9
:00000001FF
